{
  "contractName": "Healt",
  "abi": [
    {
      "inputs": [],
      "stateMutability": "nonpayable",
      "type": "constructor"
    },
    {
      "anonymous": false,
      "inputs": [
        {
          "indexed": true,
          "internalType": "address",
          "name": "owner",
          "type": "address"
        },
        {
          "indexed": true,
          "internalType": "address",
          "name": "viewer",
          "type": "address"
        },
        {
          "indexed": false,
          "internalType": "string",
          "name": "recordName",
          "type": "string"
        }
      ],
      "name": "Approval",
      "type": "event"
    },
    {
      "anonymous": false,
      "inputs": [
        {
          "indexed": false,
          "internalType": "string",
          "name": "recordName",
          "type": "string"
        },
        {
          "indexed": false,
          "internalType": "address",
          "name": "patientAddress",
          "type": "address"
        }
      ],
      "name": "PatientRecordAdded",
      "type": "event"
    },
    {
      "anonymous": false,
      "inputs": [
        {
          "indexed": true,
          "internalType": "address",
          "name": "owner",
          "type": "address"
        },
        {
          "indexed": true,
          "internalType": "address",
          "name": "viewer",
          "type": "address"
        },
        {
          "indexed": false,
          "internalType": "string",
          "name": "recordName",
          "type": "string"
        }
      ],
      "name": "unApproval",
      "type": "event"
    },
    {
      "anonymous": false,
      "inputs": [
        {
          "indexed": false,
          "internalType": "address",
          "name": "user",
          "type": "address"
        }
      ],
      "name": "userAddition",
      "type": "event"
    },
    {
      "inputs": [],
      "name": "owner",
      "outputs": [
        {
          "internalType": "address",
          "name": "",
          "type": "address"
        }
      ],
      "stateMutability": "view",
      "type": "function",
      "constant": true
    },
    {
      "inputs": [
        {
          "internalType": "address",
          "name": "",
          "type": "address"
        }
      ],
      "name": "user",
      "outputs": [
        {
          "internalType": "string",
          "name": "fullName",
          "type": "string"
        },
        {
          "internalType": "enum Healt.State",
          "name": "state",
          "type": "uint8"
        },
        {
          "internalType": "address",
          "name": "userAddress",
          "type": "address"
        }
      ],
      "stateMutability": "view",
      "type": "function",
      "constant": true
    },
    {
      "inputs": [
        {
          "internalType": "string",
          "name": "",
          "type": "string"
        },
        {
          "internalType": "address",
          "name": "",
          "type": "address"
        }
      ],
      "name": "viewRecord",
      "outputs": [
        {
          "internalType": "bool",
          "name": "",
          "type": "bool"
        }
      ],
      "stateMutability": "view",
      "type": "function",
      "constant": true
    },
    {
      "inputs": [
        {
          "internalType": "address",
          "name": "_patientAddress",
          "type": "address"
        },
        {
          "internalType": "string",
          "name": "_fullName",
          "type": "string"
        }
      ],
      "name": "addPatient",
      "outputs": [
        {
          "internalType": "bool",
          "name": "",
          "type": "bool"
        }
      ],
      "stateMutability": "nonpayable",
      "type": "function"
    },
    {
      "inputs": [
        {
          "internalType": "address",
          "name": "_doctorAddress",
          "type": "address"
        },
        {
          "internalType": "string",
          "name": "_fullName",
          "type": "string"
        }
      ],
      "name": "addDoctor",
      "outputs": [
        {
          "internalType": "bool",
          "name": "",
          "type": "bool"
        }
      ],
      "stateMutability": "nonpayable",
      "type": "function"
    },
    {
      "inputs": [
        {
          "internalType": "string",
          "name": "_fullName",
          "type": "string"
        },
        {
          "internalType": "address",
          "name": "_patientAddress",
          "type": "address"
        },
        {
          "internalType": "address",
          "name": "_doctorAddress",
          "type": "address"
        },
        {
          "internalType": "string",
          "name": "_cc",
          "type": "string"
        },
        {
          "internalType": "string",
          "name": "_pi",
          "type": "string"
        },
        {
          "internalType": "string",
          "name": "_comment",
          "type": "string"
        },
        {
          "internalType": "string",
          "name": "_mh",
          "type": "string"
        },
        {
          "internalType": "string",
          "name": "_recordName",
          "type": "string"
        },
        {
          "internalType": "uint256",
          "name": "_recordId",
          "type": "uint256"
        }
      ],
      "name": "addRecord",
      "outputs": [],
      "stateMutability": "nonpayable",
      "type": "function"
    },
    {
      "inputs": [
        {
          "internalType": "address",
          "name": "_address",
          "type": "address"
        },
        {
          "internalType": "string",
          "name": "_recordName",
          "type": "string"
        }
      ],
      "name": "getRecord",
      "outputs": [
        {
          "internalType": "string",
          "name": "_fullName",
          "type": "string"
        },
        {
          "internalType": "address",
          "name": "_doctorAddress",
          "type": "address"
        },
        {
          "internalType": "address",
          "name": "_patientAddress",
          "type": "address"
        },
        {
          "internalType": "string",
          "name": "_cc",
          "type": "string"
        },
        {
          "internalType": "string",
          "name": "_pi",
          "type": "string"
        },
        {
          "internalType": "string",
          "name": "_comment",
          "type": "string"
        },
        {
          "internalType": "string",
          "name": "_mh",
          "type": "string"
        },
        {
          "internalType": "uint256",
          "name": "_recordId",
          "type": "uint256"
        }
      ],
      "stateMutability": "view",
      "type": "function",
      "constant": true
    },
    {
      "inputs": [
        {
          "internalType": "address",
          "name": "_patientAddress",
          "type": "address"
        },
        {
          "internalType": "address",
          "name": "_viewner",
          "type": "address"
        },
        {
          "internalType": "string",
          "name": "_recordName",
          "type": "string"
        }
      ],
      "name": "grantPermission",
      "outputs": [],
      "stateMutability": "nonpayable",
      "type": "function"
    },
    {
      "inputs": [
        {
          "internalType": "address",
          "name": "_patientAddress",
          "type": "address"
        },
        {
          "internalType": "address",
          "name": "_viewner",
          "type": "address"
        },
        {
          "internalType": "string",
          "name": "_recordName",
          "type": "string"
        }
      ],
      "name": "revorkPermission",
      "outputs": [],
      "stateMutability": "nonpayable",
      "type": "function"
    },
    {
      "inputs": [
        {
          "internalType": "address",
          "name": "_address",
          "type": "address"
        }
      ],
      "name": "recordOf",
      "outputs": [
        {
          "internalType": "uint256",
          "name": "",
          "type": "uint256"
        }
      ],
      "stateMutability": "view",
      "type": "function",
      "constant": true
    },
    {
      "inputs": [
        {
          "internalType": "uint256",
          "name": "recordId",
          "type": "uint256"
        }
      ],
      "name": "ownerOfRecord",
      "outputs": [
        {
          "internalType": "address",
          "name": "",
          "type": "address"
        }
      ],
      "stateMutability": "view",
      "type": "function",
      "constant": true
    }
  ],
  "bytecode": "0x6080604052336000806101000a81548173ffffffffffffffffffffffffffffffffffffffff021916908373ffffffffffffffffffffffffffffffffffffffff16021790555034801561005057600080fd5b50336000806101000a81548173ffffffffffffffffffffffffffffffffffffffff021916908373ffffffffffffffffffffffffffffffffffffffff16021790555060006001819055506132f5806100a86000396000f3fe608060405234801561001057600080fd5b50600436106100a95760003560e01c8063b034ec3411610071578063b034ec341461017a578063bbaf36b5146101aa578063c06ac6a3146101e1578063d304baaf14610211578063db66c0601461022d578063f5a9b0191461025d576100a9565b806350065b98146100ae5780636b16553e146100de5780637cf1e445146100fa57806381e7e20e1461012a5780638da5cb5b1461015c575b600080fd5b6100c860048036038101906100c3919061242b565b610279565b6040516100d591906128e8565b60405180910390f35b6100f860048036038101906100f39190612360565b6102be565b005b610114600480360381019061010f91906123cf565b610772565b60405161012191906128e8565b60405180910390f35b610144600480360381019061013f9190612333565b6109b2565b604051610153939291906129f6565b60405180910390f35b610164610a91565b60405161017191906128cd565b60405180910390f35b610194600480360381019061018f91906125f9565b610ab5565b6040516101a191906128cd565b60405180910390f35b6101c460048036038101906101bf91906123cf565b610aec565b6040516101d8989796959493929190612955565b60405180910390f35b6101fb60048036038101906101f69190612333565b6112d1565b6040516102089190612bf4565b60405180910390f35b61022b60048036038101906102269190612487565b611390565b005b610247600480360381019061024291906123cf565b61197b565b60405161025491906128e8565b60405180910390f35b61027760048036038101906102729190612360565b611ba8565b005b6004828051602081018201805184825260208301602085012081835280955050505050506020528060005260406000206000915091509054906101000a900460ff1681565b600073ffffffffffffffffffffffffffffffffffffffff16600260008473ffffffffffffffffffffffffffffffffffffffff1673ffffffffffffffffffffffffffffffffffffffff16815260200190815260200160002060010160019054906101000a900473ffffffffffffffffffffffffffffffffffffffff1673ffffffffffffffffffffffffffffffffffffffff161415610390576040517f08c379a000000000000000000000000000000000000000000000000000000000815260040161038790612b74565b60405180910390fd5b6001808111156103a3576103a2612e57565b5b600260008473ffffffffffffffffffffffffffffffffffffffff1673ffffffffffffffffffffffffffffffffffffffff16815260200190815260200160002060010160009054906101000a900460ff16600181111561040557610404612e57565b5b14610445576040517f08c379a000000000000000000000000000000000000000000000000000000000815260040161043c90612a94565b60405180910390fd5b60038160405161045591906128b6565b908152602001604051809103902060008473ffffffffffffffffffffffffffffffffffffffff1673ffffffffffffffffffffffffffffffffffffffff16815260200190815260200160002060010160009054906101000a900473ffffffffffffffffffffffffffffffffffffffff1673ffffffffffffffffffffffffffffffffffffffff163373ffffffffffffffffffffffffffffffffffffffff1614806105a6575060038160405161050891906128b6565b908152602001604051809103902060008473ffffffffffffffffffffffffffffffffffffffff1673ffffffffffffffffffffffffffffffffffffffff16815260200190815260200160002060020160009054906101000a900473ffffffffffffffffffffffffffffffffffffffff1673ffffffffffffffffffffffffffffffffffffffff163373ffffffffffffffffffffffffffffffffffffffff16145b6105e5576040517f08c379a00000000000000000000000000000000000000000000000000000000081526004016105dc90612b94565b60405180910390fd5b600015156004826040516105f991906128b6565b908152602001604051809103902060008473ffffffffffffffffffffffffffffffffffffffff1673ffffffffffffffffffffffffffffffffffffffff16815260200190815260200160002060009054906101000a900460ff16151514610694576040517f08c379a000000000000000000000000000000000000000000000000000000000815260040161068b90612a34565b60405180910390fd5b60016004826040516106a691906128b6565b908152602001604051809103902060008473ffffffffffffffffffffffffffffffffffffffff1673ffffffffffffffffffffffffffffffffffffffff16815260200190815260200160002060006101000a81548160ff0219169083151502179055508173ffffffffffffffffffffffffffffffffffffffff163373ffffffffffffffffffffffffffffffffffffffff167f1f84ad2a44b444ff59c84b14c29a0515df82fffbd26a5a923e601d8302872c91836040516107659190612903565b60405180910390a3505050565b60008073ffffffffffffffffffffffffffffffffffffffff16600260008573ffffffffffffffffffffffffffffffffffffffff1673ffffffffffffffffffffffffffffffffffffffff16815260200190815260200160002060010160019054906101000a900473ffffffffffffffffffffffffffffffffffffffff1673ffffffffffffffffffffffffffffffffffffffff1614610844576040517f08c379a000000000000000000000000000000000000000000000000000000000815260040161083b90612bd4565b60405180910390fd5b604051806060016040528083815260200160018081111561086857610867612e57565b5b81526020018473ffffffffffffffffffffffffffffffffffffffff16815250600260008573ffffffffffffffffffffffffffffffffffffffff1673ffffffffffffffffffffffffffffffffffffffff16815260200190815260200160002060008201518160000190805190602001906108e29291906121f6565b5060208201518160010160006101000a81548160ff0219169083600181111561090e5761090d612e57565b5b021790555060408201518160010160016101000a81548173ffffffffffffffffffffffffffffffffffffffff021916908373ffffffffffffffffffffffffffffffffffffffff1602179055509050506001805461096b9190612c8c565b6001819055507fc37330a6193f3b9e88961c5fbfa254648a2df8f3a1dfeac699a39346e6aed8d3836040516109a091906128cd565b60405180910390a16001905092915050565b60026020528060005260406000206000915090508060000180546109d590612dc5565b80601f0160208091040260200160405190810160405280929190818152602001828054610a0190612dc5565b8015610a4e5780601f10610a2357610100808354040283529160200191610a4e565b820191906000526020600020905b815481529060010190602001808311610a3157829003601f168201915b5050505050908060010160009054906101000a900460ff16908060010160019054906101000a900473ffffffffffffffffffffffffffffffffffffffff16905083565b60008054906101000a900473ffffffffffffffffffffffffffffffffffffffff1681565b6000610ae58260405180606001604052806023815260200161329d602391396006611ed59092919063ffffffff16565b9050919050565b606060008060608060608060008973ffffffffffffffffffffffffffffffffffffffff1660038a604051610b2091906128b6565b908152602001604051809103902060008c73ffffffffffffffffffffffffffffffffffffffff1673ffffffffffffffffffffffffffffffffffffffff16815260200190815260200160002060010160009054906101000a900473ffffffffffffffffffffffffffffffffffffffff1673ffffffffffffffffffffffffffffffffffffffff1614610be5576040517f08c379a0000000000000000000000000000000000000000000000000000000008152600401610bdc90612b14565b60405180910390fd5b3373ffffffffffffffffffffffffffffffffffffffff1660038a604051610c0c91906128b6565b908152602001604051809103902060008c73ffffffffffffffffffffffffffffffffffffffff1673ffffffffffffffffffffffffffffffffffffffff16815260200190815260200160002060010160009054906101000a900473ffffffffffffffffffffffffffffffffffffffff1673ffffffffffffffffffffffffffffffffffffffff161480610d4657503373ffffffffffffffffffffffffffffffffffffffff1660038a604051610cbf91906128b6565b908152602001604051809103902060008c73ffffffffffffffffffffffffffffffffffffffff1673ffffffffffffffffffffffffffffffffffffffff16815260200190815260200160002060020160009054906101000a900473ffffffffffffffffffffffffffffffffffffffff1673ffffffffffffffffffffffffffffffffffffffff16145b80610dbe57506000151560048a604051610d6091906128b6565b908152602001604051809103902060003373ffffffffffffffffffffffffffffffffffffffff1673ffffffffffffffffffffffffffffffffffffffff16815260200190815260200160002060009054906101000a900460ff16151514155b610dfd576040517f08c379a0000000000000000000000000000000000000000000000000000000008152600401610df490612ab4565b60405180910390fd5b600060038a604051610e0f91906128b6565b908152602001604051809103902060008c73ffffffffffffffffffffffffffffffffffffffff1673ffffffffffffffffffffffffffffffffffffffff16815260200190815260200160002060405180610120016040529081600082018054610e7690612dc5565b80601f0160208091040260200160405190810160405280929190818152602001828054610ea290612dc5565b8015610eef5780601f10610ec457610100808354040283529160200191610eef565b820191906000526020600020905b815481529060010190602001808311610ed257829003601f168201915b505050505081526020016001820160009054906101000a900473ffffffffffffffffffffffffffffffffffffffff1673ffffffffffffffffffffffffffffffffffffffff1673ffffffffffffffffffffffffffffffffffffffff1681526020016002820160009054906101000a900473ffffffffffffffffffffffffffffffffffffffff1673ffffffffffffffffffffffffffffffffffffffff1673ffffffffffffffffffffffffffffffffffffffff168152602001600382018054610fb490612dc5565b80601f0160208091040260200160405190810160405280929190818152602001828054610fe090612dc5565b801561102d5780601f106110025761010080835404028352916020019161102d565b820191906000526020600020905b81548152906001019060200180831161101057829003601f168201915b5050505050815260200160048201805461104690612dc5565b80601f016020809104026020016040519081016040528092919081815260200182805461107290612dc5565b80156110bf5780601f10611094576101008083540402835291602001916110bf565b820191906000526020600020905b8154815290600101906020018083116110a257829003601f168201915b505050505081526020016005820180546110d890612dc5565b80601f016020809104026020016040519081016040528092919081815260200182805461110490612dc5565b80156111515780601f1061112657610100808354040283529160200191611151565b820191906000526020600020905b81548152906001019060200180831161113457829003601f168201915b5050505050815260200160068201805461116a90612dc5565b80601f016020809104026020016040519081016040528092919081815260200182805461119690612dc5565b80156111e35780601f106111b8576101008083540402835291602001916111e3565b820191906000526020600020905b8154815290600101906020018083116111c657829003601f168201915b505050505081526020016007820180546111fc90612dc5565b80601f016020809104026020016040519081016040528092919081815260200182805461122890612dc5565b80156112755780601f1061124a57610100808354040283529160200191611275565b820191906000526020600020905b81548152906001019060200180831161125857829003601f168201915b505050505081526020016008820154815250509050806000015181602001518260400151836060015184608001518560a001518660c0015187610100015198509850985098509850985098509850509295985092959890939650565b60008073ffffffffffffffffffffffffffffffffffffffff168273ffffffffffffffffffffffffffffffffffffffff161415611342576040517f08c379a000000000000000000000000000000000000000000000000000000000815260040161133990612a74565b60405180910390fd5b611389600560008473ffffffffffffffffffffffffffffffffffffffff1673ffffffffffffffffffffffffffffffffffffffff168152602001908152602001600020611ef4565b9050919050565b866001808111156113a4576113a3612e57565b5b600260008373ffffffffffffffffffffffffffffffffffffffff1673ffffffffffffffffffffffffffffffffffffffff16815260200190815260200160002060010160009054906101000a900460ff16600181111561140657611405612e57565b5b14611446576040517f08c379a000000000000000000000000000000000000000000000000000000000815260040161143d90612ad4565b60405180910390fd5b878073ffffffffffffffffffffffffffffffffffffffff163373ffffffffffffffffffffffffffffffffffffffff161461147f57600080fd5b838a8073ffffffffffffffffffffffffffffffffffffffff166003836040516114a891906128b6565b908152602001604051809103902060008373ffffffffffffffffffffffffffffffffffffffff1673ffffffffffffffffffffffffffffffffffffffff16815260200190815260200160002060010160009054906101000a900473ffffffffffffffffffffffffffffffffffffffff1673ffffffffffffffffffffffffffffffffffffffff16141561156e576040517f08c379a000000000000000000000000000000000000000000000000000000000815260040161156590612af4565b60405180910390fd5b600073ffffffffffffffffffffffffffffffffffffffff16600260008d73ffffffffffffffffffffffffffffffffffffffff1673ffffffffffffffffffffffffffffffffffffffff16815260200190815260200160002060010160019054906101000a900473ffffffffffffffffffffffffffffffffffffffff1673ffffffffffffffffffffffffffffffffffffffff161415611640576040517f08c379a000000000000000000000000000000000000000000000000000000000815260040161163790612a54565b60405180910390fd5b600073ffffffffffffffffffffffffffffffffffffffff16600260008e73ffffffffffffffffffffffffffffffffffffffff1673ffffffffffffffffffffffffffffffffffffffff16815260200190815260200160002060010160019054906101000a900473ffffffffffffffffffffffffffffffffffffffff1673ffffffffffffffffffffffffffffffffffffffff161415611712576040517f08c379a000000000000000000000000000000000000000000000000000000000815260040161170990612bb4565b60405180910390fd5b60006040518061012001604052808f81526020018e73ffffffffffffffffffffffffffffffffffffffff1681526020018d73ffffffffffffffffffffffffffffffffffffffff1681526020018c81526020018b81526020018a81526020018981526020018881526020018781525090508060038860405161179391906128b6565b908152602001604051809103902060008f73ffffffffffffffffffffffffffffffffffffffff1673ffffffffffffffffffffffffffffffffffffffff16815260200190815260200160002060008201518160000190805190602001906117fa9291906121f6565b5060208201518160010160006101000a81548173ffffffffffffffffffffffffffffffffffffffff021916908373ffffffffffffffffffffffffffffffffffffffff16021790555060408201518160020160006101000a81548173ffffffffffffffffffffffffffffffffffffffff021916908373ffffffffffffffffffffffffffffffffffffffff16021790555060608201518160030190805190602001906118a59291906121f6565b5060808201518160040190805190602001906118c29291906121f6565b5060a08201518160050190805190602001906118df9291906121f6565b5060c08201518160060190805190602001906118fc9291906121f6565b5060e08201518160070190805190602001906119199291906121f6565b5061010082015181600801559050506119328d87611f09565b7f9a5d37c2375229a53861572fc892df32a454ed446cdc8dac87189cc1fa306e0a878e604051611963929190612925565b60405180910390a15050505050505050505050505050565b60008073ffffffffffffffffffffffffffffffffffffffff16600260008573ffffffffffffffffffffffffffffffffffffffff1673ffffffffffffffffffffffffffffffffffffffff16815260200190815260200160002060010160019054906101000a900473ffffffffffffffffffffffffffffffffffffffff1673ffffffffffffffffffffffffffffffffffffffff1614611a4d576040517f08c379a0000000000000000000000000000000000000000000000000000000008152600401611a4490612bd4565b60405180910390fd5b604051806060016040528083815260200160006001811115611a7257611a71612e57565b5b81526020018473ffffffffffffffffffffffffffffffffffffffff16815250600260008573ffffffffffffffffffffffffffffffffffffffff1673ffffffffffffffffffffffffffffffffffffffff1681526020019081526020016000206000820151816000019080519060200190611aec9291906121f6565b5060208201518160010160006101000a81548160ff02191690836001811115611b1857611b17612e57565b5b021790555060408201518160010160016101000a81548173ffffffffffffffffffffffffffffffffffffffff021916908373ffffffffffffffffffffffffffffffffffffffff1602179055509050507fc37330a6193f3b9e88961c5fbfa254648a2df8f3a1dfeac699a39346e6aed8d383604051611b9691906128cd565b60405180910390a16001905092915050565b600381604051611bb891906128b6565b908152602001604051809103902060008473ffffffffffffffffffffffffffffffffffffffff1673ffffffffffffffffffffffffffffffffffffffff16815260200190815260200160002060010160009054906101000a900473ffffffffffffffffffffffffffffffffffffffff1673ffffffffffffffffffffffffffffffffffffffff163373ffffffffffffffffffffffffffffffffffffffff161480611d095750600381604051611c6b91906128b6565b908152602001604051809103902060008473ffffffffffffffffffffffffffffffffffffffff1673ffffffffffffffffffffffffffffffffffffffff16815260200190815260200160002060020160009054906101000a900473ffffffffffffffffffffffffffffffffffffffff1673ffffffffffffffffffffffffffffffffffffffff163373ffffffffffffffffffffffffffffffffffffffff16145b611d48576040517f08c379a0000000000000000000000000000000000000000000000000000000008152600401611d3f90612b34565b60405180910390fd5b60011515600482604051611d5c91906128b6565b908152602001604051809103902060008473ffffffffffffffffffffffffffffffffffffffff1673ffffffffffffffffffffffffffffffffffffffff16815260200190815260200160002060009054906101000a900460ff16151514611df7576040517f08c379a0000000000000000000000000000000000000000000000000000000008152600401611dee90612b54565b60405180910390fd5b6000600482604051611e0991906128b6565b908152602001604051809103902060008473ffffffffffffffffffffffffffffffffffffffff1673ffffffffffffffffffffffffffffffffffffffff16815260200190815260200160002060006101000a81548160ff0219169083151502179055508173ffffffffffffffffffffffffffffffffffffffff163373ffffffffffffffffffffffffffffffffffffffff167ff80db2d4c7dfd716d0c8cbb9249fe5d522919dd84ecd6a33378e429072cb889083604051611ec89190612903565b60405180910390a3505050565b6000611ee8846000018460001b84611f76565b60001c90509392505050565b6000611f0282600001612017565b9050919050565b611f5a81600560008573ffffffffffffffffffffffffffffffffffffffff1673ffffffffffffffffffffffffffffffffffffffff16815260200190815260200160002061202890919063ffffffff16565b50611f71818360066120429092919063ffffffff16565b505050565b60008084600101600085815260200190815260200160002054905060008114158390611fd8576040517f08c379a0000000000000000000000000000000000000000000000000000000008152600401611fcf9190612903565b60405180910390fd5b5084600001600182611fea9190612ce2565b81548110611ffb57611ffa612eb5565b5b9060005260206000209060020201600101549150509392505050565b600081600001805490509050919050565b600061203a836000018360001b612077565b905092915050565b600061206e846000018460001b8473ffffffffffffffffffffffffffffffffffffffff1660001b6120e7565b90509392505050565b600061208383836121d3565b6120dc5782600001829080600181540180825580915050600190039060005260206000200160009091909190915055826000018054905083600101600084815260200190815260200160002081905550600190506120e1565b600090505b92915050565b600080846001016000858152602001908152602001600020549050600081141561218e578460000160405180604001604052808681526020018581525090806001815401808255809150506001900390600052602060002090600202016000909190919091506000820151816000015560208201518160010155505084600001805490508560010160008681526020019081526020016000208190555060019150506121cc565b82856000016001836121a09190612ce2565b815481106121b1576121b0612eb5565b5b90600052602060002090600202016001018190555060009150505b9392505050565b600080836001016000848152602001908152602001600020541415905092915050565b82805461220290612dc5565b90600052602060002090601f016020900481019282612224576000855561226b565b82601f1061223d57805160ff191683800117855561226b565b8280016001018555821561226b579182015b8281111561226a57825182559160200191906001019061224f565b5b509050612278919061227c565b5090565b5b8082111561229557600081600090555060010161227d565b5090565b60006122ac6122a784612c34565b612c0f565b9050828152602081018484840111156122c8576122c7612f18565b5b6122d3848285612d83565b509392505050565b6000813590506122ea8161326e565b92915050565b600082601f83011261230557612304612f13565b5b8135612315848260208601612299565b91505092915050565b60008135905061232d81613285565b92915050565b60006020828403121561234957612348612f22565b5b6000612357848285016122db565b91505092915050565b60008060006060848603121561237957612378612f22565b5b6000612387868287016122db565b9350506020612398868287016122db565b925050604084013567ffffffffffffffff8111156123b9576123b8612f1d565b5b6123c5868287016122f0565b9150509250925092565b600080604083850312156123e6576123e5612f22565b5b60006123f4858286016122db565b925050602083013567ffffffffffffffff81111561241557612414612f1d565b5b612421858286016122f0565b9150509250929050565b6000806040838503121561244257612441612f22565b5b600083013567ffffffffffffffff8111156124605761245f612f1d565b5b61246c858286016122f0565b925050602061247d858286016122db565b9150509250929050565b60008060008060008060008060006101208a8c0312156124aa576124a9612f22565b5b60008a013567ffffffffffffffff8111156124c8576124c7612f1d565b5b6124d48c828d016122f0565b99505060206124e58c828d016122db565b98505060406124f68c828d016122db565b97505060608a013567ffffffffffffffff81111561251757612516612f1d565b5b6125238c828d016122f0565b96505060808a013567ffffffffffffffff81111561254457612543612f1d565b5b6125508c828d016122f0565b95505060a08a013567ffffffffffffffff81111561257157612570612f1d565b5b61257d8c828d016122f0565b94505060c08a013567ffffffffffffffff81111561259e5761259d612f1d565b5b6125aa8c828d016122f0565b93505060e08a013567ffffffffffffffff8111156125cb576125ca612f1d565b5b6125d78c828d016122f0565b9250506101006125e98c828d0161231e565b9150509295985092959850929598565b60006020828403121561260f5761260e612f22565b5b600061261d8482850161231e565b91505092915050565b61262f81612d16565b82525050565b61263e81612d28565b82525050565b61264d81612d71565b82525050565b600061265e82612c65565b6126688185612c70565b9350612678818560208601612d92565b61268181612f27565b840191505092915050565b600061269782612c65565b6126a18185612c81565b93506126b1818560208601612d92565b80840191505092915050565b60006126ca601c83612c70565b91506126d582612f38565b602082019050919050565b60006126ed603883612c70565b91506126f882612f61565b604082019050919050565b6000612710602283612c70565b915061271b82612fb0565b604082019050919050565b6000612733601a83612c70565b915061273e82612fff565b602082019050919050565b6000612756603183612c70565b915061276182613028565b604082019050919050565b6000612779601283612c70565b915061278482613077565b602082019050919050565b600061279c601583612c70565b91506127a7826130a0565b602082019050919050565b60006127bf601283612c70565b91506127ca826130c9565b602082019050919050565b60006127e2602d83612c70565b91506127ed826130f2565b604082019050919050565b6000612805601383612c70565b915061281082613141565b602082019050919050565b6000612828601683612c70565b91506128338261316a565b602082019050919050565b600061284b602b83612c70565b915061285682613193565b604082019050919050565b600061286e603983612c70565b9150612879826131e2565b604082019050919050565b6000612891600d83612c70565b915061289c82613231565b602082019050919050565b6128b081612d67565b82525050565b60006128c2828461268c565b915081905092915050565b60006020820190506128e26000830184612626565b92915050565b60006020820190506128fd6000830184612635565b92915050565b6000602082019050818103600083015261291d8184612653565b905092915050565b6000604082019050818103600083015261293f8185612653565b905061294e6020830184612626565b9392505050565b6000610100820190508181036000830152612970818b612653565b905061297f602083018a612626565b61298c6040830189612626565b818103606083015261299e8188612653565b905081810360808301526129b28187612653565b905081810360a08301526129c68186612653565b905081810360c08301526129da8185612653565b90506129e960e08301846128a7565b9998505050505050505050565b60006060820190508181036000830152612a108186612653565b9050612a1f6020830185612644565b612a2c6040830184612626565b949350505050565b60006020820190508181036000830152612a4d816126bd565b9050919050565b60006020820190508181036000830152612a6d816126e0565b9050919050565b60006020820190508181036000830152612a8d81612703565b9050919050565b60006020820190508181036000830152612aad81612726565b9050919050565b60006020820190508181036000830152612acd81612749565b9050919050565b60006020820190508181036000830152612aed8161276c565b9050919050565b60006020820190508181036000830152612b0d8161278f565b9050919050565b60006020820190508181036000830152612b2d816127b2565b9050919050565b60006020820190508181036000830152612b4d816127d5565b9050919050565b60006020820190508181036000830152612b6d816127f8565b9050919050565b60006020820190508181036000830152612b8d8161281b565b9050919050565b60006020820190508181036000830152612bad8161283e565b9050919050565b60006020820190508181036000830152612bcd81612861565b9050919050565b60006020820190508181036000830152612bed81612884565b9050919050565b6000602082019050612c0960008301846128a7565b92915050565b6000612c19612c2a565b9050612c258282612df7565b919050565b6000604051905090565b600067ffffffffffffffff821115612c4f57612c4e612ee4565b5b612c5882612f27565b9050602081019050919050565b600081519050919050565b600082825260208201905092915050565b600081905092915050565b6000612c9782612d67565b9150612ca283612d67565b9250827fffffffffffffffffffffffffffffffffffffffffffffffffffffffffffffffff03821115612cd757612cd6612e28565b5b828201905092915050565b6000612ced82612d67565b9150612cf883612d67565b925082821015612d0b57612d0a612e28565b5b828203905092915050565b6000612d2182612d47565b9050919050565b60008115159050919050565b6000819050612d428261325a565b919050565b600073ffffffffffffffffffffffffffffffffffffffff82169050919050565b6000819050919050565b6000612d7c82612d34565b9050919050565b82818337600083830152505050565b60005b83811015612db0578082015181840152602081019050612d95565b83811115612dbf576000848401525b50505050565b60006002820490506001821680612ddd57607f821691505b60208210811415612df157612df0612e86565b5b50919050565b612e0082612f27565b810181811067ffffffffffffffff82111715612e1f57612e1e612ee4565b5b80604052505050565b7f4e487b7100000000000000000000000000000000000000000000000000000000600052601160045260246000fd5b7f4e487b7100000000000000000000000000000000000000000000000000000000600052602160045260246000fd5b7f4e487b7100000000000000000000000000000000000000000000000000000000600052602260045260246000fd5b7f4e487b7100000000000000000000000000000000000000000000000000000000600052603260045260246000fd5b7f4e487b7100000000000000000000000000000000000000000000000000000000600052604160045260246000fd5b600080fd5b600080fd5b600080fd5b600080fd5b6000601f19601f8301169050919050565b7f416c7265616479206861732076696577696e6720726967687473212100000000600082015250565b7f54686520646f63746f7241646472657373206973206e6f74206e6f7468696e6760008201527f202c666972737420637265617465206120616464726573730000000000000000602082015250565b7f207265636f726420717565727920666f7220746865207a65726f20616464726560008201527f7373000000000000000000000000000000000000000000000000000000000000602082015250565b7f566965776e65722073686f756c64206265206120646f63746f72000000000000600082015250565b7f2074686520646f63746f7220616e64207468652075736572206861766520706560008201527f6d697373696f6e2063616e207669657720000000000000000000000000000000602082015250565b7f55736572206973206e6f7420646f63746f720000000000000000000000000000600082015250565b7f207265636f726420616c72656164792065786973740000000000000000000000600082015250565b7f207265636f7264206973206e6f7468696e670000000000000000000000000000600082015250565b7f4f6e6c792070617469656e7420616e6420646f63746f722063616e207265766f60008201527f726b207065726d697373696f6e00000000000000000000000000000000000000602082015250565b7f4e6f206e65656420746f207265766f6b65212100000000000000000000000000600082015250565b7f566965776e6572206e6f74207265676973746572656400000000000000000000600082015250565b7f4f6e6c792070617469656e7420616e6420646f63746f722063616e206769766560008201527f207065726d697373696f6e000000000000000000000000000000000000000000602082015250565b7f5468652070617469656e7441646472657373206973206e6f74206e6f7468696e60008201527f67202c6669727374206372656174652061206164647265737300000000000000602082015250565b7f416c726561647920657869737400000000000000000000000000000000000000600082015250565b6002811061326b5761326a612e57565b5b50565b61327781612d16565b811461328257600080fd5b50565b61328e81612d67565b811461329957600080fd5b5056fe206f776e657220717565727920666f72206e6f6e6578697374656e74207265636f7264a2646970667358221220e589ced648702c5da53b52060c9a2f63666a19004a4f74d129c0ac1ee518046a64736f6c63430008070033",
  "immutableReferences": {},
  "source": "// SPDX-License-Identifier: MIT\npragma solidity >=0.5.16 <0.9.0;\n/// @title Identity Management In Healthcare\n/// @author Sodaba Oloumi - <sodaba.ulomi@gmail.com>\n///@notice Contract is deployed, tested and run on Rinkeby network.\n/// Allows Medical Record System to maintain records of patients in their network.\n/// Records can be accessed by doctor and patient .\n/// A patient's record can be shared ,The doctor and the patient themselves can allow the third person to see the record.\n\n\nimport \"./InterfacePatientRecords.sol\";\nimport \"./EnumerableMap.sol\";\nimport \"./EnumerableSet.sol\";\n\n\ncontract Healt is InterfacePatientRecords  {\n   using EnumerableSet for EnumerableSet.UintSet;\n   using EnumerableMap for EnumerableMap.UintToAddressMap;\n   \n   \n //  variables\n  address public owner = msg.sender;\n  uint userCount;\n  \n\n// enum\n  enum State{\n      Patient,\n      Doctor\n  }\n  // struct\n  struct User{\n      string fullName;\n      State state;\n      address userAddress;\n  }\n   struct Record{\n        string fullName;\n        address patientAddress;\n        address doctorAddress;\n        string cc;\n        string pi;\n        string comment;\n        string mh;\n        string recordName;\n        uint256 recordId;\n    }\n    /* \n   * Mapping\n   */\n     \n  mapping (address => User)public user;\n  \n  mapping (string => mapping (address => Record))private record;\n  \n  // Mapping from record name to approved address\n  mapping (string => mapping (address => bool)) public viewRecord;\n\n  // Mapping from holder address to their (enumerable) set of owned records\n    mapping (address => EnumerableSet.UintSet) private _holderRecords;\n\n    // Enumerable mapping from record ids to their owners\n    EnumerableMap.UintToAddressMap private _patientRecords;\n    \n  \n  \n  /* \n   * Events\n   */\n   /// @notice Emitted when a user is registred \n  /// @param user User address\n   event userAddition(address user);\n   \n    /// @notice Emitted when the doctor added a record to the patient's address\n  /// @param recordName record name string\n  /// @param patientAddress patient address \n   event PatientRecordAdded(string recordName, address patientAddress);\n   \n   \n    /// @notice Emitted when the doctor or patient permission the user to view patient's record\n  /// @param owner Owner address \n  /// @param viewer Viewer address \n  /// @param recordName record name string\n   event Approval(address indexed owner, address indexed viewer, string recordName);\n   \n   \n    /// @notice Emitted when the doctor or patient revork permission the user to view patient's record\n  /// @param owner Owner address \n  /// @param viewer Viewer address \n  /// @param recordName record name string\n   event unApproval(address indexed owner, address indexed viewer, string recordName);\n\n  \n\nconstructor() {\n         owner = msg.sender;\n         userCount =0;\n    \n    }\n\n  /* \n   * Modifiers\n   */\n\n   modifier isOwner () { \n    require (owner == msg.sender,'\"Caller is not owner\"' ); \n    _;\n  }\n\n  modifier verifyCaller (address _address) { \n    require (msg.sender == _address); \n    _;\n  }\n\n   modifier isDoctor(address _address){\n       \n       require(user[_address].state == State.Doctor,\"User is not doctor\");\n       _;\n   }\n   modifier isPatient(address _address){\n        \n       require(user[_address].state == State.Patient,\"User is not patient\");\n       _;\n   } \n   modifier recordExist(string memory _recordName, address _address){\n       require(record[_recordName][_address].patientAddress != _address ,\n       \" record already exist\");\n      _;\n   }\n\n \n    /* \n   * Functions\n   */\n    \n     ///@notice  The addPatient function registred the new patient user\n     /// @param _patientAddress The adress of patient\n     /// @param _fullName The name of patient\n  function addPatient( address _patientAddress, string memory _fullName) public override returns (bool) {\n         // A user can only register once\n         require(user[_patientAddress].userAddress == address(0),\"Already exist\");\n    user[_patientAddress] = User({\n     fullName: _fullName, \n     state: State.Patient, \n     userAddress: _patientAddress\n    });\n   \n   emit userAddition(_patientAddress);\n    return true;\n  }\n  \n      ///@notice The addDoctor function registred the new doctor user\n     /// @param _doctorAddress The adress of doctor\n     /// @param _fullName The name of doctor\n  function addDoctor( address _doctorAddress, string memory _fullName) public override returns (bool) {\n    // A user can only register once\n    require(user[_doctorAddress].userAddress == address(0),\"Already exist\");\n    user[_doctorAddress] = User({\n     fullName: _fullName, \n     state: State.Doctor, \n     userAddress: _doctorAddress\n    });\n   \n   userCount = userCount + 1;\n   emit userAddition(_doctorAddress);\n    return true;\n  }\n      ///@notice Allows to add a patient record in the network.\n     /// Only a doctor can add record\n     /// modifiers to ckeck the user is doctor  \n     /// and check the user calling this function is the doctor\n  function addRecord(string memory _fullName,address _patientAddress , address _doctorAddress ,\n  string memory _cc ,string memory _pi ,string memory _comment ,string memory _mh,\n  string memory _recordName ,uint256 _recordId ) public override isDoctor(_doctorAddress) \n  verifyCaller(_doctorAddress) recordExist(_recordName ,_patientAddress){\n     \n      require(user[_doctorAddress].userAddress != address(0), \"The doctorAddress is not nothing ,first create a address\");\n      require(user[_patientAddress].userAddress != address(0), \"The patientAddress is not nothing ,first create a address\");\n      \n      Record memory newRecord = Record( _fullName,_patientAddress,\n      _doctorAddress,_cc,_pi,_comment , _mh , _recordName  , _recordId );\n         record[_recordName][_patientAddress]=newRecord; \n      mint( _patientAddress , _recordId);   \n         \n      emit PatientRecordAdded(_recordName, _patientAddress);\n  }\n  /// @notice Gets the record of the patient.\n  function getRecord(address _address,\n  string memory _recordName)view public override\n  returns(string memory _fullName , address _doctorAddress,address _patientAddress,\n  string memory _cc , string memory _pi  ,string memory _comment,string memory _mh ,uint256 _recordId)\n  {\n      \n       require(record[_recordName][_address].patientAddress == _address \n      ,\" record is nothing\");\n      \n      // in 3 state we can get record 1: the patient \n      // 2: the doctor 3:  user who have Permission for view record.\n     require(record[_recordName][_address].patientAddress == msg.sender || \n      record[_recordName][_address].doctorAddress == msg.sender ||\n      viewRecord[_recordName][msg.sender] != false,\n      \" the doctor and the user have pemission can view \");\n      \n      // return the record of patient\n       Record memory s =record[_recordName][_address];\n       \n        return(s.fullName,s.patientAddress, s.doctorAddress,s.cc,s.pi,s.comment,s.mh , s.recordId );\n  }\n  \n  ///@notice doctor or  patient grand  permission the user to view the record. \n  function grantPermission(address _patientAddress,address _viewner, string memory _recordName  )\n  public override\n   {\n       \n       // check the viewner is accsesed \n       require(user[_viewner].userAddress != address(0),\"Viewner not registered\");\n       //\n       require(user[_viewner].state == State.Doctor,\"Viewner should be a doctor\");\n       \n       // the person calling this function should be the patient or doctor \n    \n       require(( msg.sender == record[_recordName][_patientAddress].patientAddress)||\n       (msg.sender ==record[_recordName][_patientAddress].doctorAddress)\n       ,\"Only patient and doctor can give permission\");\n       \n       require(viewRecord[_recordName][_viewner] == false, \"Already has viewing rights!!\");\n       \n        viewRecord[_recordName][_viewner]= true;\n        \n        emit Approval(msg.sender, _viewner, _recordName);\n        \n    }\n    \n    //@notice doctor or  patient grand  permission the user to view the record \n  \n  function revorkPermission (address _patientAddress,address _viewner, \n  string memory _recordName) public override{\n       \n       require(( msg.sender == record[_recordName][_patientAddress].patientAddress)||\n       (msg.sender ==record[_recordName][_patientAddress].doctorAddress)\n       ,\"Only patient and doctor can revork permission\");\n       require(viewRecord[_recordName][_viewner] == true, \"No need to revoke!!\");\n       \n      viewRecord[_recordName][_viewner]= false;\n      emit unApproval(msg.sender, _viewner, _recordName);\n  }\n   //with patient address get the  number of records.\n    function recordOf(address _address) public view  override returns (uint256) {\n        require(_address != address(0), \" record query for the zero address\");\n        return _holderRecords[_address].length();\n    }\n   // can get the owner of record with the record ID.\n   function ownerOfRecord(uint256 recordId) public view  override returns (address) {\n        return _patientRecords.get(recordId, \" owner query for nonexistent record\");\n}  \n   function mint(address _address ,uint256 _recordId)internal {\n     _holderRecords[_address].add(_recordId);\n         _patientRecords.set( _recordId,_address);\n   }\n\n    \n}\n",
  "sourcePath": "/home/sodaba/blockchain-developer-bootcamp-final-project/contracts/Healt.sol",
  "compiler": {
    "name": "solc",
    "version": "0.8.7+commit.e28d00a7.Emscripten.clang"
  },
  "schemaVersion": "3.4.3",
  "updatedAt": "2021-11-30T17:18:06.636Z",
  "networkType": "ethereum",
  "devdoc": {
    "events": {
      "Approval(address,address,string)": {
        "params": {
          "owner": "Owner address ",
          "recordName": "record name string",
          "viewer": "Viewer address "
        }
      },
      "PatientRecordAdded(string,address)": {
        "params": {
          "patientAddress": "patient address ",
          "recordName": "record name string"
        }
      },
      "unApproval(address,address,string)": {
        "params": {
          "owner": "Owner address ",
          "recordName": "record name string",
          "viewer": "Viewer address "
        }
      },
      "userAddition(address)": {
        "params": {
          "user": "User address"
        }
      }
    },
    "kind": "dev",
    "methods": {
      "addDoctor(address,string)": {
        "params": {
          "_doctorAddress": "The adress of doctor",
          "_fullName": "The name of doctor"
        }
      },
      "addPatient(address,string)": {
        "params": {
          "_fullName": "The name of patient",
          "_patientAddress": "The adress of patient"
        }
      }
    },
    "version": 1
  },
  "userdoc": {
    "events": {
      "Approval(address,address,string)": {
        "notice": "Emitted when the doctor or patient permission the user to view patient's record"
      },
      "PatientRecordAdded(string,address)": {
        "notice": "Emitted when the doctor added a record to the patient's address"
      },
      "unApproval(address,address,string)": {
        "notice": "Emitted when the doctor or patient revork permission the user to view patient's record"
      },
      "userAddition(address)": {
        "notice": "Emitted when a user is registred "
      }
    },
    "kind": "user",
    "methods": {
      "addDoctor(address,string)": {
        "notice": "The addDoctor function registred the new doctor user"
      },
      "addPatient(address,string)": {
        "notice": "The addPatient function registred the new patient user"
      },
      "addRecord(string,address,address,string,string,string,string,string,uint256)": {
        "notice": "Allows to add a patient record in the network. Only a doctor can add record modifiers to ckeck the user is doctor   and check the user calling this function is the doctor"
      },
      "getRecord(address,string)": {
        "notice": "Gets the record of the patient."
      },
      "grantPermission(address,address,string)": {
        "notice": "doctor or  patient grand  permission the user to view the record. "
      },
      "revorkPermission(address,address,string)": {
        "notice": "Allows a doctor and patient to revork permission of a user to view  the record for a patient."
      }
    },
    "version": 1
  }
}